:020000040800F2
:100000000000022039BE00083FA9000847A90008E7
:100010004FA9000857A900085FA9000800000000C8
:10002000000000000000000000000000298300081C
:1000300067A9000800000000E5820008158200089A
:1000400089BE000889BE000889BE000889BE000874
:1000500089BE000889BE000889BE000889BE000864
:1000600089BE000889BE000889BE000829910008E1
:1000700089BE000889BE000889BE000889BE000844
:1000800089BE000889BE000889BE000889BE000834
:1000900089BE000889BE000889BE000889BE000824
:1000A00089BE000889BE000889BE000889BE000814
:1000B00075A9000889BE000889BE000889BE00082D
:1000C00089BE000889BE000889BE000889BE0008F4
:1000D00089BE000889BE000889BE000889BE0008E4
:1000E00089BE000889BE000889BE000889BE0008D4
:1000F00089BE000889BE000889BE000889BE0008C4
:1001000089BE000889BE000889BE000889BE0008B3
:1001100089BE000889BE000889BE000889BE0008A3
:1001200089BE000889BE000889BE000889BE000893
:1001300089BE000889BE000889BE000889BE000883
:1001400089BE000889BE000889BE000889BE000873
:1001500089BE000889BE000889BE000889BE000863
:1001600089BE000889BE000889BE000889BE000853
:1001700089BE000889BE000889BE000889BE000843
:1001800089BE000889BE000889BE000889BE000833
:1001900089BE00080000000089BE000889BE000872
:1001A00089BE000889BE000889BE000815910008B4
:1001B00089BE000889BE000889BE000889BE000803
:1001C00089BE000889BE000889BE000889BE0008F3
:0801D00089BE000889BE000889
:1001D80081F0004102E000BF83F0004330B54FEAF0
:1001E80041044FEA430594EA050F08BF90EA020F5D
:1001F8001FBF54EA000C55EA020C7FEA645C7FEAF0
:10020800655C00F0E2804FEA5454D4EB5555B8BF12
:100218006D420CDD2C4480EA020281EA030382EA83
:10022800000083EA010180EA020281EA0303362D15
:1002380088BF30BD11F0004F4FEA01314FF4801CE8
:100248004CEA113102D0404261EB410113F0004FFA
:100258004FEA03334CEA133302D0524263EB4303B1
:1002680094EA050F00F0A780A4F10104D5F1200E4F
:100278000DDB02FA0EFC22FA05F2801841F10001AA
:1002880003FA0EF2801843FA05F359410EE0A5F17E
:1002980020050EF1200E012A03FA0EFC28BF4CF0AF
:1002A800020C43FA05F3C01851EBE37101F0004565
:1002B80007D54FF0000EDCF1000C7EEB00006EEB72
:1002C8000101B1F5801F1BD3B1F5001F0CD34908FC
:1002D8005FEA30004FEA3C0C04F101044FEA445253
:1002E80012F5800F80F09A80BCF1004F08BF5FEADA
:1002F800500C50F1000041EB045141EA050130BDBA
:100308005FEA4C0C404141EB0101013C28BFB1F5CB
:10031800801FE9D291F0000F04BF01460020B1FA16
:1003280081F308BF2033A3F10B03B3F120020CDAE9
:100338000C3208DD02F1140CC2F10C0201FA0CF0C7
:1003480021FA02F10CE002F11402D8BFC2F1200C2C
:1003580001FA02F120FA0CFCDCBF41EA0C019040E2
:10036800E41AA2BF01EB0451294330BD6FEA04042B
:100378001F3C1CDA0C340EDC04F11404C4F1200216
:1003880020FA04F001FA02F340EA030021FA04F328
:1003980045EA030130BDC4F10C04C4F1200220FA7F
:1003A80002F001FA04F340EA0300294630BD21FABD
:1003B80004F0294630BD94F0000F83F4801306BF83
:1003C80081F480110134013D4EE77FEA645C18BF77
:1003D8007FEA655C29D094EA050F08BF90EA020F0E
:1003E80005D054EA000C04BF1946104630BD91EA06
:1003F800030F1EBF0021002030BD5FEA545C05D109
:100408004000494128BF41F0004130BD14F5800447
:100418003CBF01F5801130BD01F0004545F0FE41BB
:1004280041F470014FF0000030BD7FEA645C1ABFF0
:10043800194610467FEA655C1CBF0B46024650EA27
:10044800013406BF52EA033591EA030F41F4002153
:1004580030BD00BF90F0000F04BF0021704730B5D9
:100468004FF4806404F132044FF000054FF00001AE
:1004780050E700BF90F0000F04BF0021704730B56F
:100488004FF4806404F1320410F0004548BF404244
:100498004FF000013EE700BF42004FEAE2014FEA99
:1004A80031014FEA02701FBF12F07F4393F07F4F74
:1004B80081F06051704732F07F4208BF704793F077
:1004C8007F4F04BF41F40021704730B54FF460748A
:1004D80001F0004521F000411CE700BF50EA01028D
:1004E80008BF704730B54FF000050AE050EA010236
:1004F80008BF704730B511F0004502D5404261EBA6
:1005080041014FF4806404F132045FEA915C3FF4E6
:10051800D8AE4FF003025FEADC0C18BF03325FEA83
:10052800DC0C18BF033202EBDC02C2F1200300FA34
:1005380003FC20FA02F001FA03FE40EA0E0021FA59
:1005480002F11444BDE600BF70B54FF0FF0C4CF447
:10055800E06C1CEA11541DBF1CEA135594EA0C0FF9
:1005680095EA0C0F00F0DEF82C4481EA030621EA34
:100578004C5123EA4C5350EA013518BF52EA03356F
:1005880041F4801143F4801338D0A0FB02CE4FF021
:100598000005E1FB02E506F00042E0FB03E54FF051
:1005A8000006E1FB03569CF0000F18BF4EF0010E49
:1005B800A4F1FF04B6F5007F64F5407404D25FEA45
:1005C8004E0E6D4146EB060642EAC62141EA5551F8
:1005D8004FEAC52040EA5E504FEACE2EB4F1FD0C3A
:1005E80088BFBCF5E06F1ED8BEF1004F08BF5FEAB8
:1005F800500E50F1000041EB045170BD06F000466A
:1006080046EA010140EA020081EA0301B4EB5C0416
:10061800C2BFD4EB0C0541EA045170BD41F480110E
:100628004FF0000E013C00F3AB8014F1360FDEBF33
:10063800002001F0004170BDC4F10004203C35DA0F
:100648000C341BDC04F11404C4F1200500FA05F392
:1006580020FA04F001FA05F240EA020001F0004233
:1006680021F0004110EBD37021FA04F642EB0601A9
:100678005EEA430E08BF20EAD37070BDC4F10C04D3
:10068800C4F1200500FA04F320FA05F001FA04F297
:1006980040EA020001F0004110EBD37041F1000183
:1006A8005EEA430E08BF20EAD37070BDC4F120058E
:1006B80000FA05F24EEA020E20FA04F301FA05F2F6
:1006C80043EA020321FA04F001F0004121FA04F29E
:1006D80020EA020000EBD3705EEA430E08BF20EA6E
:1006E800D37070BD94F0000F0FD101F000464000A8
:1006F80041EB010111F4801F08BF013CF7D041EA2A
:10070800060195F0000F18BF704703F0004652002D
:1007180043EB030313F4801F08BF013DF7D043EAFE
:100728000603704794EA0C0F0CEA135518BF95EAB4
:100738000C0F0CD050EA410618BF52EA4306D1D13B
:1007480081EA030101F000414FF0000070BD50EA5A
:10075800410606BF1046194652EA430619D094EAE4
:100768000C0F02D150EA013613D195EA0C0F05D1CE
:1007780052EA03361CBF104619460AD181EA030122
:1007880001F0004141F0FE4141F470014FF00000DA
:1007980070BD41F0FE4141F4780170BD70B54FF075
:1007A800FF0C4CF4E06C1CEA11541DBF1CEA1355F5
:1007B80094EA0C0F95EA0C0F00F0A7F8A4EB0504D7
:1007C80081EA030E52EA03354FEA013100F08880CE
:1007D8004FEA03334FF0805545EA131343EA126397
:1007E8004FEA022245EA111545EA10654FEA00264C
:1007F8000EF000419D4208BF964244F1FD0404F505
:10080800407402D25B084FEA3202B61A65EB030560
:100818005B084FEA32024FF480104FF4002CB6EB1D
:10082800020E75EB030E22BFB61A754640EA0C009D
:100838005B084FEA3202B6EB020E75EB030E22BFDD
:10084800B61A754640EA5C005B084FEA3202B6EB1E
:10085800020E75EB030E22BFB61A754640EA9C00DD
:100868005B084FEA3202B6EB020E75EB030E22BFAD
:10087800B61A754640EADC0055EA060E18D04FEA6B
:10088800051545EA16754FEA06164FEAC30343EA0B
:1008980052734FEAC2025FEA1C1CC0D111F4801FD8
:1008A8000BD141EA00014FF000004FF0004CB6E7D1
:1008B80011F4801F04BF01430020B4F1FD0C88BF70
:1008C800BCF5E06F3FF6AFAEB5EB030C04BFB6EB7B
:1008D800020C5FEA500C50F1000041EB045170BD6E
:1008E8000EF0004E4EEA113114EB5C04C2BFD4EB9B
:1008F8000C0541EA045170BD41F480114FF0000E1F
:10090800013C90E645EA060E8DE60CEA135594EA9A
:100918000C0F08BF95EA0C0F3FF43BAF94EA0C0F9D
:100928000AD150EA01347FF434AF95EA0C0F7FF412
:1009380025AF104619462CE795EA0C0F06D152EA66
:1009480003353FF4FDAE1046194622E750EA41064A
:1009580018BF52EA43067FF4C5AE50EA41047FF45B
:100968000DAF52EA43057FF4EBAE12E74FF0FF3CC0
:1009780006E000BF4FF0010C02E000BF4FF0010C91
:100988004DF804CD4FEA410C7FEA6C5C4FEA430C0A
:1009980018BF7FEA6C5C1BD001B050EA410C0CBF59
:1009A80052EA430C91EA030F02BF90EA020F0020BB
:1009B800704710F1000F91EA030F58BF994208BF22
:1009C80090422CBFD8176FEAE37040F001007047DF
:1009D8004FEA410C7FEA6C5C02D150EA013C07D136
:1009E8004FEA430C7FEA6C5CD6D152EA033CD3D081
:1009F8005DF8040B704700BF8446104662468C467B
:100A08001946634600E000BF01B5FFF7B7FF0028AD
:100A180048BF10F1000F01BD4DF808EDFFF7F4FFD6
:100A28000CBF012000205DF808FB00BF4DF808ED61
:100A3800FFF7EAFF34BF012000205DF808FB00BF84
:100A48004DF808EDFFF7E0FF94BF012000205DF8A6
:100A580008FB00BF4DF808EDFFF7CEFF94BF01205B
:100A680000205DF808FB00BF4DF808EDFFF7C4FF54
:100A780034BF012000205DF808FB00BF4FEA410C9D
:100A88007FEA6C5C02D150EA013C0AD14FEA430C80
:100A98007FEA6C5C02D152EA033C02D14FF00000BD
:100AA80070474FF0010070474A0011D212F500124A
:100AB80011D20DD56FF47873B3EB62520ED44FEAAE
:100AC800C12343F0004343EA505323FA02F070472E
:100AD8004FF00000704750EA013002D14FF0FF306C
:100AE80070474FF00000704753B94AB9002908BF52
:100AF80000281CBF4FF0FF314FF0FF3000F00CB85A
:100B0800ADF1080C6DE904CE0CF066FADDF804E0EE
:100B1800DDE9022304B07047704700BF0348044B67
:100B2800834202D0034B03B118477047EC00002002
:100B3800EC000020000000000548064B1B1AD90FE6
:100B480001EBA301491002D0034B03B118477047CA
:100B5800EC000020EC0000200000000010B5064C5E
:100B6800237843B9FFF7DAFF044B13B10448AFF316
:100B780000800123237010BDF00000200000000059
:100B88001CD3000808B5054B1BB105490548AFF350
:100B98000080BDE80840FFF7CFBF00BF000000009D
:100BA800F40000201CD3000880B485B000AF786042
:100BB80039600023FB7397F90F3018461437BD4688
:100BC8005DF8047B7047000080B584B000AF7860A2
:100BD80039600023FB727B68002B05D1374801F090
:100BE8005DF94FF0FF3365E03B68002B05D13448D1
:100BF80001F054F94FF0FF335CE0324BD3E90001C8
:100C08004FF000024FF04043FFF706FF0346002B6A
:100C180006D03B68D3E900232A49C1E9002305E04F
:100C2800284BD3E900233968C1E90023254BD3E9D0
:100C380000014FF00002244BFFF7EEFE0346002BA5
:100C480002D0224801F02AF97B685B681B68204AB9
:100C580013607B685B685B681E4A13607B685B682F
:100C68009B681D4A13607B685B68DB681B4A1360DE
:100C78001B4B00221A6001F08DFD0023FB6000234E
:100C8800FB6007E0174AFB68174942F82310FB6826
:100C98000133FB60FB68012BF4D901F0BBF9034673
:100CA800FB7297F90B30002B02D1104B01221A70FE
:100CB80097F90B3018461037BD4680BD38D3000869
:100CC8005CD30008080000200000F0BF88D30008AB
:100CD800B0030020B4030020B8030020BC030020A8
:100CE800C00300200C01002005280008AD030020E7
:100CF80080B586B000AF78600023FB7500233B61A8
:100D08000023FB732A4B1B78DBB2002B0CBF01239B
:100D18000023DBB2BB73274B02221A707B68002BBF
:100D28000BD1234B1B78DBB2002B06D1224B1B784F
:100D3800DBB2002B01D1012300E00023FB7316E096
:100D48000A2007F069F93B6903F51C5310333B612E
:100D58007B68B3F1FF3F05D03A697B689A4201D9B5
:100D6800012300E00023FB73002001F0ABF9104BD6
:100D78001B78DBB2002B07D10F4B1B78DBB2002BA3
:100D880002D1FB7B002BDBD00A4B03221A70FB7BC2
:100D9800002B01D09C23FB75BB7B002B01D001F0FD
:100DA80027FE97F9173018461837BD4680BD00BF93
:100DB800AB030020AD030020AC03002080B586B053
:100DC80000AF034687ED000BFB810023FB75012371
:100DD800BB754FF000024FF00003D7E90001FFF7A1
:100DE80025FE0346002B05D02E4801F057F84FF09A
:100DF800FF3353E0FB89FF2B08D9FB89FF221946F3
:100E0800294801F04BF84FF0FF3347E0274B1B7898
:100E1800DBB2032B04D0254B1B78DBB2012B02D1AC
:100E2800224B04221A70FB89012B15D8FB89204A12
:100E380052F82330002B0FD002F0A0F903467B753F
:100E48007B7D022B08D1FB89194A52F82330FA8995
:100E5800104698470346BB75FB897B82FB89184679
:100E680097ED000B01F038F8BB7D002B06D07B8A8C
:100E7800184602F05BF90346FB7503E07B8A1846C7
:100E880002F0B7F997F91730002B05D097F917300A
:100E98001946084801F002F897F91730184618372C
:100EA800BD4680BDF4D3000838D40008AD03002047
:100EB8000C01002078D4000880B582B000AF002370
:100EC800FB71002001F0FEF80346FB7197F907302B
:100ED80018460837BD4680BD80B582B000AF0023F4
:100EE800FB710B4B06221A7001F08AF90346FB715D
:100EF8000822002107480CF0CDF901F0FFFC044B53
:100F080000221A7097F9073018460837BD4680BD89
:100F1800AD0300200C01002080B400AF034B1B7808
:100F2800DBB21846BD465DF8047B7047AC03002071
:100F380080B400AF034B1B78DBB21846BD465DF8A2
:100F4800047B7047C403002080B483B000AF78608E
:100F58007B681B6843F001027B681A6000BF0C378E
:100F6800BD465DF8047B704780B483B000AF7860FD
:100F78007B681B6823F001027B681A6000BF0C378E
:100F8800BD465DF8047B704780B483B000AF7860DD
:100F980039607B681B6823F004023B681A437B684E
:100FA8001A6000BF0C37BD465DF8047B704780B4FB
:100FB80083B000AF78607B681B6803F004031846B1
:100FC8000C37BD465DF8047B704780B483B000AF32
:100FD800786039607B683A685A6200BF0C37BD4652
:100FE8005DF8047B704780B483B000AF78607B689D
:100FF8001B6803F0100318460C37BD465DF8047BE8
:10100800704780B483B000AF78607B68DB6A1846AD
:101018000C37BD465DF8047B704780B483B000AFE1
:10102800786039607B683A681A6300BF0C37BD4640
:101038005DF8047B704780B483B000AF78607B684C
:101048005B6943F001027B685A6100BF0C37BD46FB
:101058005DF8047B704780B483B000AF78607B682C
:101068001B6918460C37BD465DF8047B70470000C5
:1010780080B485B000AF78607B681B689A68074BBE
:101088001340FB60FB68062B0CBF01230023DBB277
:1010980018461437BD465DF8047B70470700010009
:1010A80080B584B000AF78600B46FB707B681B6826
:1010B8001846FFF77CFFF860FB78002B23D07B688D
:1010C8001B68374A934218D07B681B68354A93429D
:1010D80013D07B681B68344A93420ED07B681B6828
:1010E800324A934209D07B681B68314A934204D044
:1010F8007B681B682F4A934205D17B681B680021D7
:101108001846FFF78AFFFB68042B11D07B681B6821
:1011180004211846FFF738FF7B681B681846FFF75D
:101128008AFF7B681B68F9681846FFF72DFF04E003
:101138007B681B681846FFF77EFF7B681B681846AC
:10114800FFF702FFFB78002B25D07B681B68144A49
:10115800934218D07B681B68124A934213D07B686D
:101168001B68114A93420ED07B681B680F4A934252
:1011780009D07B681B680E4A934204D07B681B68C1
:101188000C4A934207D17B681A687B685B791946D9
:101198001046FFF742FF00BF1037BD4680BD00BFB5
:1011A800002C01400034014000400140004401404F
:1011B800004801400050014080B582B000AF78601F
:1011C8007B681B681846FFF7CFFE00BF0837BD468F
:1011D80080BD80B584B000AF78600B46FB70FB78AB
:1011E800012B1AD17B681B681846FFF7FCFE0346E3
:1011F800002B06D17B681B6800211846FFF7E5FE27
:101208000BE07B681B681846FFF7FBFEF8607B68FD
:101218001B68F9681846FFF7D8FE00BF1037BD46AF
:1012280080BD80B483B000AF78607B6801225A77B4
:101238007B6801229A777B680122DA777B684FF016
:10124800FF329A6100BF0C37BD465DF8047B7047DA
:1012580080B588B000AF87ED040B0346B9607A60AB
:10126800FB737B684FF0FF329A617B68D3E90223F6
:10127800D7E90401FEF7B0FF02460B46C7E906238B
:101288004FF00002354BD7E90601FFF7EDFB0346A7
:10129800002B0DD07B68D3E900014FF00002304BE2
:1012A800FEF79AFF02460B467968C1E9002316E06B
:1012B8004FF000022B4BD7E90601FFF7B7FB0346B7
:1012C800002B0CD07B68D3E900014FF00002244BBF
:1012D800FEF784FF02460B467968C1E90023FB7BD1
:1012E800002B14D07B68D3E900014FF000021E4B9D
:1012F800FFF72AF902460B4610461946D7E9042398
:10130800FEF76CFF02460B467968C1E90423796849
:10131800D7E90423C1E902237B68D3E900014FF030
:101328000002114BFFF710F902460B46104619460A
:10133800D7E90423FEF752FF02460B46104619462A
:101348007B68D3E90423FEF747FF02460B46B968DA
:10135800C1E9002300BF2037BD4680BD0000DE4044
:101368000000F03F0000DEC00000EE4080B5A6B0EF
:1013780000AF78601E4BBB6000233B7300237B7378
:1013880007F1080318460BF099FB02467B68DA6000
:101398007B68DB68002118460BF06CF8022387F89D
:1013A80097307B68DB6897F89720114618460BF052
:1013B80025FA7B68DB6897F89720114618460BF0EA
:1013C800CDFA7B68DB681846FFF752FE034687F8BC
:1013D800963097F89630002B05D17B68DB680021A2
:1013E8001846FFF75DFE00BF9837BD4680BD00BFB9
:1013F8000008004080B5A6B000AF78601E4BBB6007
:1014080000233B7300237B7307F1080318460BF096
:1014180055FB02467B68DA607B68DB68002118466A
:101428000BF028F8022387F897307B68DB6897F879
:101438009720114618460BF0E1F97B68DB6897F8AE
:101448009720114618460BF089FA7B68DB68184626
:10145800FFF70EFE034687F8963097F89630002B74
:1014680005D17B68DB6800211846FFF719FE00BF2D
:101478009837BD4680BD00BF0004004080B5A6B0C7
:1014880000AF78601E4BBB6000233B7300237B7367
:1014980007F1080318460BF011FB02467B68DA6077
:1014A8007B68DB68002118460AF0E4FF022387F80E
:1014B80097307B68DB6897F89720114618460BF041
:1014C8009DF97B68DB6897F89720114618460BF062
:1014D80045FA7B68DB681846FFF7CAFD034687F8BC
:1014E800963097F89630002B05D17B68DB68002191
:1014F8001846FFF7D5FD00BF9837BD4680BD00BF31
:10150800002C014000000000B0B58AB000AF804850
:10151800FFF7A1FD78617B6903F40053002B14BF2A
:1015280001230023DBB2FB747A4B1B6BFA7C114658
:101538001846FFF74EFE774B1B6B0022002118461A
:101548000BF05CFB78617869FEF784FF714BD3E997
:101558002023FEF741FE02460B46C7E90023D7E9E0
:1015680000014FF000026C4BFFF77EFA0346002B98
:101578000DD0684BD3E91E014FF00002674BFEF710
:101588002BFE02460B466349C1E91E2316E0D7E944
:1015980000014FF00002624BFFF748FA0346002BA8
:1015A8000CD05C4BD3E91E014FF000025B4BFEF7F9
:1015B80015FE02460B465749C1E91E23FB7C002B4A
:1015C80019D0544BD3E91E014FF00002554BFEF7DA
:1015D800BBFF02460B4614461D467869FEF73AFFE4
:1015E80002460B4620462946FEF7F8FD02460B4602
:1015F8004849C1E922237869FEF72CFF02460B46C9
:101608004449C1E92023434BD3E91E014FF00002AE
:10161800444BFEF799FF02460B4614461D4678696F
:10162800FEF718FF02460B4620462946FEF7D6FD70
:1016380002460B4610461946364BD3E92223FEF7DD
:10164800CBFD02460B463849C1E90423364BD3E9A2
:1016580004014FF00002354BFEF776FF02460B46B9
:101668001046194628A3D3E90023FEF76DFF02466A
:101678000B462D49C1E900232D4BD3F84C31D3E952
:101688000023C7E90023234BD3E91601D7E9002338
:10169800FFF7E0F90346002B11D01E4BD3E91A01DE
:1016A800D7E90023FFF7D6F90346002B07D01E49D8
:1016B8004FF000024FF00003C1E902236CE0154B24
:1016C800D3E91623C7E908231A4BFB61114BD3E969
:1016D8001601104BD3E91A23FFF7A8F90346002B8C
:1016E8002CD00C4BD3E91A01D7E90023FFF79EF958
:1016F8000346002B33D0074BD3E91A23C7E9082345
:101708000D4BFB612BE000BF182D4454FB21194001
:1017180000080048300100200000DE400000F03FD3
:101728000000DEC00000EE40180100200000203F4D
:101738000802002090010020A00100207E4BD3E980
:101748001601D7E90023FFF785F90346002B06D0D9
:10175800794BD3E91A23C7E90823784BFB61784B07
:10176800D3E90001FB69D3E90023FEF735FD024602
:101778000B4614461D46D7E90001D7E90823FEF7B2
:101788002BFD02460B4620462946FFF707F802467E
:101798000B466B49C1E90223674B1B6CFA7C114667
:1017A8001846FFF716FD644B1B6C002200211846F3
:1017B8000BF024FA78617869FEF74CFE04460D4672
:1017C8003946FB7C5F4A184645EC104BFFF740FD55
:1017D800594B1B6DFA7C11461846FFF7FAFC564B1D
:1017E8001B6D0022002118460BF008FA7861786911
:1017F800FEF730FE04460D463946FB7C524A184631
:1018080045EC104BFFF724FD4FF09040FFF723FC09
:101818004FF09040FFF71FFC474BD3E916014B4BA5
:10182800D3E90023FFF7F8F80346002B0AD0484B0A
:10183800D3F84C31D3E900233F49C1E91623454B7E
:10184800BB6135E03C4BD3E91A01404BD3E9002397
:10185800FFF7E2F80346002B0AD03D4BD3F84C3192
:10186800D3E900233449C1E91A23344BBB611FE093
:10187800314BD3E91601304BD3E91A23FFF7D6F8D9
:101888000346002B0AD0324BD3F84C31D3E900235E
:101898002949C1E916232F4BBB6109E02C4BD3F82A
:1018A8004C31D3E900232449C1E91A23234BBB61F6
:1018B800234BD3E90023B969C1E900230023BB7492
:1018C800234BD3F838311846FEF7C4FD18A3D3E9E3
:1018D8000023FEF739FE02460B46C7E9022397EDBF
:1018E800020B0120FFF76AFA0346BB74184BD3F8C2
:1018F80028210132C3F82821D3F828311846FEF7E9
:10190800A9FD134BD3E94C23114CD4F84C41FEF7F5
:101918001BFE02460B46C4E900230D4BD3F83821C1
:101928000132C3F8382100BF2837BD46B0BD00BF1B
:101938002D431CEBE2361A3F30010020A0010020A5
:1019480018010020C8010020E80100200000002044
:10195800080200209001002080B500AF744B744A43
:1019680003F5A473D360724B714A03F5A673C2F8EA
:1019780084306F4B6E4A03F5987393626C4A6C4BD4
:10198800C3F8D0206A4B6A4A9A60694BDB68012227
:101998001A70674B002283F8FC20654B002283F8FD
:1019A8000C21634B634A5A61614B614A03F5A87382
:1019B800C2F84C315E494FF000025F4BC1E9502339
:1019C8005B4959A3D3E90023C1E94C23584B5B4A2F
:1019D800C3F81021564B5A4AC3F81421544B594A9C
:1019E800C3F81821524B584AC3F81C21504B574A88
:1019F8005A60564B564A1A60554B564A1A60544B11
:101A0800544A5A60524B534A9A60514B514ADA60D1
:101A18004F4B504A1A614E4B4E4A5A614C4B4D4AF5
:101A28009A614B4B4B4ADA61494B4A4A1A62484B16
:101A3800484A5A623E4A3E4B5B6802F590729A6089
:101A48003B4A3B4B5B6802F588725A60384A384B10
:101A58005B68D2F84C21DA603F4BD3E900233F4959
:101A6800C1E916233C4BD3E900233C49C1E91A23B9
:101A78003B48FFF7D6FB3B48FFF7D3FB374B002229
:101A88001A70364B01225A60344B01221A72334BBA
:101A9800002283F82420314B002283F82C202F4B7E
:101AA80001229A623048FFF761FC2C4B012283F82F
:101AB8002C202A4B002283F83420284B002283F85C
:101AC8003C20264B01229A632848FFF793FC234BBE
:101AD800012283F83C20214B002283F844201F4B2D
:101AE800002283F84C201D4B01229A642048FFF7FE
:101AF800C5FC1A4B012283F84C20184B00221A7699
:101B0800164B0122DA61154B012283F82020134B72
:101B180000221A73114B01221A61104B01221A7507
:101B280000BF80BDAFF300802D431CEBE2361A3FA7
:101B380008020020F4D500080000F0BFA6A37F0D1E
:101B4800A5D45C1A8B5D47B1761539FA6803002075
:101B58007C030020D8FB0008000000203001002092
:101B6800C8010020E8010020540100206401002081
:101B78007401002080B582B000AF504B1B78002B59
:101B880002D14E4B01221A704C4B93F82430002B93
:101B980027D14A4B012283F82420484B9B6A012B0A
:101BA8001FD1464B93F82C30002B1AD0434B1B6B9C
:101BB8001846FFF701FB414B1B6B002118460AF042
:101BC8003BFD0223FB713D4B1B6BFA79114618460E
:101BD8000AF06CFE394B1B6BFA79114618460AF06D
:101BE80015FF364B93F83430002B27D1334B0122A5
:101BF80083F83420314B9B6B012B1FD12F4B93F86B
:101C08003C30002B1AD02D4B1B6C1846FFF7D4FA2A
:101C18002A4B1B6C002118460AF00EFD0223FB71AB
:101C2800264B1B6CFA79114618460AF03FFE234BE7
:101C38001B6CFA79114618460AF0E8FE1F4B93F818
:101C48004430002B27D11D4B012283F844201B4B25
:101C58009B6C012B1FD1194B93F84C30002B1AD0D9
:101C6800164B1B6D1846FFF7A7FA144B1B6D002186
:101C780018460AF0E1FC0223FB71104B1B6DFA7940
:101C8800114618460AF012FE0C4B1B6DFA791146E4
:101C980018460AF0BBFE094B1B7E002B02D1074BEE
:101CA80001221A76054B1B7B002B02D1034B012224
:101CB8001A7300BF0837BD4680BD00BF3001002041
:101CC80080B500AF0F4B1B785A1CD1B20D4A11706A
:101CD800002B09D00C4B01221A600A4B1B78013BE0
:101CE800DAB2084B1A700BE062B600BFFFF70CFCC3
:101CF80072B600BF034B1B78013BDAB2014B1A7076
:101D080080BD00BFA8030020A403002080B586B0D2
:101D180000AF786039605B4B7B615B4B3B610023B4
:101D2800FB735A4B00221A70594B00221A7001DFBC
:101D380009F016FE08F0F2FA06F086F908F096FDAA
:101D480008F0AEFD08F042FB08F07AFC08F002FD4E
:101D580008F0E0FB4F4B1B6800221A6000210020AE
:101D6800FEF722FF0346FB7397F90F30002B02D0D2
:101D780097F90F3081E0FFF7EFFD72B600BF62B64A
:101D880000BF444B1B685A68424B1B6803F5A0739D
:101D980019461046FEF718FF0346FB7397F90F30F4
:101DA800002B0DD14FF0FF30FEF7A2FFFFF7B4F87C
:101DB8000346002B04D0374B1B68012283F84921C6
:101DC80072B600BF97ED050A06F030FAFFF7B0F8D3
:101DD8000346002B0CD1FFF79FF80346002B07D1D1
:101DE8002C4B1B6893F84931002B01D1012300E0EB
:101DF8000023DAB2264B1A7062B600BF62B600BF83
:101E08002FE0FFF759F80346FB73FFF791F80346F5
:101E1800002B0AD1FFF780F80346002B05D11D4B94
:101E28001B6893F84931002B01D0012300E00023FF
:101E3800DAB2164B1A70154B1B78DBB2002B0CBFAD
:101E480001230023DBB21A46114B1A700F4B1B7883
:101E5800DBB2002B05D0104B1B680F4A23F001039F
:101E680013600B4B1B78DBB2002BCAD1FFF782FE45
:101E7800FFF732F872B600BF002318461837BD4680
:101E880080BD00BF17B7D13800002A43A90300203E
:101E9800AA030020D4FB000810E000E00FB480B4CF
:101EA80000AF00BFBD465DF8047B04B0704780B446
:101EB80085B000AFF860B9607A60FB68BA681A60EC
:101EC800FB6804337A681A6000BF1437BD465DF8B2
:101ED800047B704700000000F0B58BB000AF87EDC1
:101EE800020B0346FB80FB88012B77D14FF00002E1
:101EF800414BD7E90201FEF727FB02460B46C7E92B
:101F080006239FED391B97ED060B0AF0A9FE53EC4B
:101F1800102B10461946FEF7C7FD03467B610023C8
:101F28007B6233A3D3E90023D7E90601FEF79CFDC2
:101F38000346002B0ED02EA3D3E90023D7E90601D0
:101F4800FEF72CFC02460B4610461946FEF7ACFD80
:101F580003467B627A6A79692848FFF7A8FF284B0D
:101F6800D3E900014FF00002264BFEF755FD03466A
:101F7800002B2ED1224BD3E900014FF000024FF085
:101F88004043FEF749FD0346002B22D11C4BD3E901
:101F98000001D7E90223FEF71FF902460B46144653
:101FA8001D464FF00002184BD7E90201FEF7CCFAA4
:101FB80002460B4601210E4620462946FEF736FD0D
:101FC8000346002B01D100231E46F3B21A460F4BDD
:101FD8001A700F49D7E90223C1E9002300BF2C3743
:101FE800BD46F0BDAFF30080000000000000F041E6
:101FF8000000E0FFFFFFEF4100408F40D8030020C2
:10200800080000200000F0BF0000B03CC40300201E
:10201800E003002080B584B000AF0023BB6000233C
:102028007B600023FB7323494FF000024FF000034D
:10203800C1E9002320494FF000024FF00003C1E935
:1020480000233A1D07F108031146184605F0B6FFAC
:10205800BB687A681146184604F0D2F80346FB7349
:1020680097F90F30002B05D01448FFF717FF97F9A1
:102078000F301AE03A1D07F108031146184605F01B
:10208800B4FFBB687A681146184600F053FF034650
:10209800FB7397F90F30002B05D097F90F301946CD
:1020A8000748FFF7FBFE97F90F3018461037BD4673
:1020B80080BD00BFC8030020D003002008D6000858
:1020C80030D6000880B584B000AF0346FB7100230A
:1020D800FB730023BB73002005F09EFF00237B7376
:1020E80004F05CFA0346FB7397F90F30002B0DD010
:1020F80097F90F3013F1020F08D097F90F301946EE
:102108003C48FFF7CBFE0123BB730BE07B7B002B26
:1021180004D197F90F3013F1020F01D0012300E029
:1021280000237B73BB7B002B21D100F035FF0346D6
:10213800FB7397F90F30002B0DD097F90F3013F17F
:10214800020F08D097F90F3019462B48FFF7A6FE63
:102158000123BB730BE07B7B002B04D197F90F3075
:1021680013F1020F01D0012300E000237B73BB7B36
:10217800002B21D104F09CF90346FB7397F90F302B
:10218800002B0DD097F90F3013F1020F08D097F9F3
:102198000F3019461948FFF781FE0123BB730BE086
:1021A8007B7B002B04D197F90F3013F1020F01D07C
:1021B800012300E000237B73FB79002B0DD0002066
:1021C80005F02AFFBB7B002B02D17B7B002B01D1C2
:1021D800012300E00023BB7301E00123BB73BB7B39
:1021E800002B3FF47BAF97F90F3018461037BD46E8
:1021F80080BD00BF58D6000890D60008C0D6000899
:1022080080B582B000AF0023BB70394B1B78DBB2BE
:10221800002B02D0002000F0DDFF00F0AFFF0346E6
:10222800FB7000237B600EE00A2005F0F5FE7B685A
:1022380003F51C5310337B600120FFF743FF00F0C8
:102248009DFF0346FB707B682A4A934202D2FB78C3
:10225800002BE9D100F09EFF0346BB7097F90230CE
:10226800002B05D097F9023019462348FFF716FED0
:1022780004F00EFB0346BB7097F90230002B05D023
:1022880097F9023019461D48FFF708FE1C4B00223B
:102298001A701C4B00221A701B4B00221A601B4B31
:1022A80000221A601A4B00221A601A4B00221A6088
:1022B800194B00221A6019494FF000024FF04043B1
:1022C800C1E900230A4B00221A7008220021144891
:1022D8000AF0E0FF13494FF000024FF00003C1E994
:1022E800002397F9023018460837BD4680BD00BF65
:1022F800C403002000879303F8D6000814D7000809
:10230800AB030020AC030020B0030020B40300207E
:10231800B8030020BC030020C003002008000020F0
:10232800D8030020E003002080B586B000AF614BE1
:102338001B687B617B69002B00F0B8805E4B1B78C3
:10234800DBB2002B04D15B4B1B68002B00F0AE8086
:102358005A4B1B78DBB2022B40F0A880584B1B78F5
:10236800002B40F0A3807B69D3E90023C7E902234F
:10237800544B1B78002B00F08A80534B1B78DBB240
:10238800002B04D0504B1B78DBB2022B01D1012368
:1023980000E00023FB714C4B1B78DBB2012B04D00F
:1023A800494B1B78DBB2022B01D1012300E000234B
:1023B800BB71FB79002B33D0444BD3E90023D7E919
:1023C8000201FEF747FB0346002B0AD0404BD3E936
:1023D80000013E4BD3E90023FEF728FB0346002B00
:1023E80014D13A4BD3E90023D7E90201FEF73CFBAD
:1023F8000346002B14D0364BD3E90001334BD3E905
:102408000023FEF709FB0346002B09D0314B1B685C
:10241800002B02D1304B01221A70294B01221A706D
:10242800BB79002B33D0294BD3E90023D7E902012C
:10243800FEF7FCFA0346002B0AD0254BD3E900012E
:10244800224BD3E90023FEF705FB0346002B14D1EA
:102458001E4BD3E90023D7E90201FEF7DDFA034654
:10246800002B14D01A4BD3E90001184BD3E90023F1
:10247800FEF7FAFA0346002B09D0164B1B68002B0F
:1024880002D1154B01221A700D4B01221A700C4B08
:102498001B78002B0CBF01230023DBB21A46094B23
:1024A8001A700B49D7E90223C1E9002300BF183786
:1024B800BD4680BDEC030020F00300200C04002082
:1024C8001B0400201804002008040020F803002042
:1024D80010040020040400201A04002080B582B0F3
:1024E80000AF0023FB719E4B1B78DBB2002B18D189
:1024F8009C4B00221A709C4B00221A709B4B1B7835
:10250800DBB2002B2DD0964B02221A70974B00227B
:102518001A70974B1B78DBB2002B22D10123FB7179
:102528001FE0924B00221A708E4B1B78DBB2002BF7
:1025380009D0904B00221A70894B00221A70894BDF
:1025480000221A700DE08A4B1B78DBB2002B02D1F7
:102558000123FB7105E0844B1B78FB71824B002241
:102568001A707F4B1B78DBB2042B00F2D78001A2D4
:1025780052F823F091250008CB260008AB25000867
:102588007F26000809260008784B1B78DBB2002B51
:1025980000F0D880724B02221A70744B00221A7015
:1025A800D0E0FB79002B00F0CF80734B1B68002B29
:1025B8000DDD6F4B1B78DBB2012B08D16E4B1B680E
:1025C8001A466E4B1A60664B03221A70BCE06C4BBD
:1025D8001B68002B0AD0674B01221A70684B1B68D6
:1025E800664A13605E4B04221A70ADE06548FFF737
:1025F80055FC604B00221A70594B00221A70A3E058
:102608005E4B1B68002B04D05C4B1B68013B5B4A8C
:1026180013605A4B1B68002B40F098805A4B1B786C
:10262800DBB2012B06D1534B00221A704C4B00220F
:102638001A708BE0554B1B68002B0AD04D4B0022BB
:102648001A70524B1B684D4A1360454B01221A7091
:102658007CE0FB79002B07D0494B1B68474A136085
:102668003F4B04221A7071E0424B00221A703C4B17
:1026780002221A706AE0414B1B68002B04D03F4BC2
:102688001B68013B3D4A13603C4B1B68002B5FD124
:102698003B4B1B68002B0AD0364B01221A70384B73
:1026A8001B68364A13602E4B04221A7050E03548D6
:1026B800FFF7F4FB2F4B00221A70294B00221A70E7
:1026C80046E02E4B1B68002B04D02C4B1B68013BAB
:1026D8002A4A1360294B1B68002B3BD1FB79002B3E
:1026E80018D0274B1B68002B0AD0224B01221A70E6
:1026F800234B1B68214A1360194B04221A7029E0E6
:102708002048FFF7CBFB1B4B00221A70144B00220A
:102718001A701FE0124B02221A701BE0104B1B7834
:10272800DBB219461A48FFF7B9FB124B00221A70A0
:102738000D4B00221A700B4B00221A70084B002216
:102748001A7008E000BF06E000BF04E000BF02E026
:1027580000BF00E000BF00BF0837BD4680BD00BF16
:102768000C040020090400201B0400201400002091
:102778000A0400201A040020040400201C0400207D
:102788001000002038D700080B04002000040020A7
:1027980060D7000880B400AF10494FF000024FF036
:1027A8000003C1E900230E4B00221A700D4B1B7861
:1027B800DAB20D4B1A700D4B00221A700C4B002226
:1027C8001A700C4B00221A600B4B00221A7000235F
:1027D8001846BD465DF8047B704700BF1004002012
:1027E800180400200A040020190400201A040020FC
:1027F8001B0400201C0400200C04002080B584B0B9
:1028080000AF0346FB80FB88012B3FD1314B1B787F
:10281800DAB2314B1B789A4214BF01230023DBB292
:10282800FB732C4B1B78DAB22B4B1A70FB7B002BFB
:102838000BD02A4B00221A70294B00221A70294B00
:1028480000221A60284B00221A70224B1B78DBB238
:10285800012B1BD1244B1B78DBB2002B04D1234B5B
:102868001B78DBB2002B08D11F4B1B78DBB2012B86
:102878000CD11C4B1B68012B08D11A4B00221A6083
:102888001A4B00221A70184B02221A70114B1B782F
:10289800DBB2012B07D1164B1B889BB2FA889A42F0
:1028A80001D1FFF741FDFB88012B05D1FFF716FE8B
:1028B800104B00221A7006E00E4B1B78002B02D03A
:1028C8000D4B1B7801E0054B1B7818461037BD46A9
:1028D80080BD00BF0A040020190400201A0400204B
:1028E8001B0400201C0400200C04002014000020FD
:1028F800E8030020210400202004002080B400AF59
:1029080026494FF000024FF00003C1E90023244B91
:1029180000221A70234B00221A70234B00221A70CF
:10292800224B00221A80224B00221A70214B0022CF
:102938001A70214B00221A60204B00221A70204B7B
:1029480000221A701F4B00221A601F4B00221A70B7
:102958001E494FF000024FF00003C1E900231C4B51
:102968004FF47A721A601B4B00221A601A4B00222D
:102978001A601A4B00221A70194B01221A70194B4F
:1029880000221A70184B00221A70184B00221A7075
:1029980000231846BD465DF8047B704710040020EC
:1029A800180400200C04002019040020E80300206B
:1029B8001A0400201B0400201C040020200400200E
:1029C80021040020EC030020F0030020F80300207D
:1029D8001000002000040020040400200804002047
:1029E80014000020090400200A0400200B04002021
:1029F80080B400AF174B1B78DBB2002B25D1164BE8
:102A08001B78DBB2002B0BD0144B1B78DBB2002BEE
:102A180006D1134B01221A70124B01221A7014E0CE
:102A28000E4B1B78DBB2002B0BD00B4B1B78DBB2A9
:102A3800002B06D10A4B00221A700A4B01221A7089
:102A480003E0084B00221A70FFE700BFBD465DF89F
:102A5800047B70470A0400201400002009040020A9
:102A6800200400202104002080B586B000AFF86063
:102A7800B9607A603B600023FB7503F0FDFE3861A6
:102A8800FB681B68184604F00DF90021386803F04C
:102A98006BFE0246BB681A6003F056FE02467B686E
:102AA8001A60BB681B68002B0FD0BB681B681946EF
:102AB800386904F0FDFB0246FB681A60FB681B6876
:102AC800002B04D1F623FB7501E0F823FB7597F979
:102AD800173018461837BD4680BD000080B584B051
:102AE80000AFF860B9607A60FA68BB6813441B7875
:102AF80019460848FFF7D2F9FB68002B02D0F8689E
:102B080004F0D0F87B6800221A60002318461037BA
:102B1800BD4680BD84D7000880B584B000AFF8609A
:102B2800B9607A60FA68BB6813441B78194606488E
:102B3800FFF7B4F97B6802221A604FF0FF3318469A
:102B48001037BD4680BD00BFE0D7000880B485B00F
:102B580000AF03460A46FB711346BB710523FB739E
:102B6800FB79F02B02D90023FB7322E0FB79E32BDE
:102B780005D9FB79F02B02D80123FB7319E0FB7907
:102B8800D22B02D9FB79E22B08D9FB79C02B08D1CB
:102B9800BB79002B05D0BB79022B02D80223FB732B
:102BA80007E0FB79C72B04D9FB79D22B01D8032383
:102BB800FB73FB7B18461437BD465DF8047B7047F2
:102BC80080B58CB000AFF860B9607A603B60FB6894
:102BD800BB62BB6A1B7887F82730002387F82F3041
:102BE80097F82730C02B06D1BB68012B03D9BB6AE5
:102BF8005B7887F82F30364B1B78002B3ED097F840
:102C08002F2097F8273011461846FFF79FFF0346F5
:102C1800FB76002387F82E30FB7E052B23D0FB7E26
:102C28002C4A52F823307B6100233B617B69002BDF
:102C380019D097F827207B691046984738613B6977
:102C4800002B14BF01230023DBB287F82E3097F83E
:102C58002E30002B07D03B695A687B681A603B69A5
:102C68009A683B681A6097F82E30002B2CD17B6845
:102C7800194A1A603B68194A1A6025E097F8273004
:102C8800FF2B1BD1134B1B683B627B6800221A6029
:102C98003B6800221A603B6A002B15D03B6AFF2074
:102CA8009847F861FB69002B0ED0FB695A687B686E
:102CB8001A60FB699A683B681A6005E07B68084AF5
:102CC8001A603B6800221A6000BF3037BD4680BDDD
:102CD8002304002028040020212B0008B12D00081F
:102CE800E52A000880B483B000AF0346FB71044AAC
:102CF800FB79137000BF0C37BD465DF8047B704745
:102D08002304002080B400AF034B1B781846BD464F
:102D18005DF8047B704700BF2404002080B483B0B2
:102D280000AF0346FB71064B1A78FB791343DAB2FE
:102D3800034B1A7000BF0C37BD465DF8047B704723
:102D48002404002080B483B000AF0346FB7197F9D8
:102D58000730DB435AB2074B1B785BB213405BB2B8
:102D6800DAB2044B1A7000BF0C37BD465DF8047B1D
:102D7800704700BF2404002080B400AF034B1B78C9
:102D88001846BD465DF8047B704700BF2504002047
:102D980080B400AF034B1B881846BD465DF8047B22
:102DA800704700BF2604002080B586B000AF0346F8
:102DB800B9607A60FB7397F90F30002B05D1BB68B7
:102DC8003B613B69FF221A7076E0BB687B617B69D7
:102DD800FE221A7097F90F3010330F2B62D801A218
:102DE80052F823F0A52E00089D2E0008952E000805
:102DF8008D2E0008852E00087D2E00086D2E0008F7
:102E0800752E0008652E00085D2E0008552E000856
:102E18004D2E0008352E00082D2E00083D2E0008E6
:102E2800452E00087B6930225A7045E07B692922CB
:102E38005A7041E07B6922225A703DE07B6920226A
:102E48005A7039E07B6900225A7035E07B69232289
:102E58005A7031E07B6921225A702DE07B6911227A
:102E68005A7029E07B6927225A7025E07B692A225B
:102E78005A7021E07B6910225A701DE07B69242278
:102E88005A7019E07B6928225A7015E07B6926225E
:102E98005A7011E07B6931225A700DE07B69332248
:102EA8005A7009E097F90F3019460548FEF7F6FF02
:102EB8007B6920225A70FFE700BF1837BD4680BDE6
:102EC80010D8000880B487B000AF0346B9607A60B4
:102ED800FB7300237B61BB68002B23D000233B617D
:102EE80000233B6117E03A6913465B0013449B00DB
:102EF8001A46BB6813441B78FA7B9A4208D13A6990
:102F080013465B0013449B001A46BB6813447B615D
:102F18003B6901333B613A697B689A4202D27B691B
:102F2800002BE0D07B6918461C37BD465DF8047B52
:102F38007047000080B582B000AF78603960134BED
:102F48001B78002B05D01248FEF7A8FF6FF00B0383
:102F580018E000F07BFC00F085FC03460D4A136086
:102F680002F052FA02F06CFA03460A4A936003F040
:102F780045F803F04DF80346064A5360034B012217
:102F88001A70002318460837BD4680BD2204002069
:102F980054D800082804002080B58CB002AF002364
:102FA80087F82730002387F826300023FB610023A9
:102FB800BB6100237B6100233B610023FB6000238E
:102FC8003B620023BB6000237B60554B1B78002BC2
:102FD80005D15448FEF762FF6FF008039BE007F144
:102FE800140007F1180207F11C0107F11003009300
:102FF8000346002003F012FB034687F8273097F9B1
:103008002730002B09D097F9273013F1040F04D08B
:1030180097F9273013F1050F71D1FB69002B05D003
:103028007A693B691A44BB699A4203D9F82387F83D
:10303800273067E0FA697B6913443B6239693B1DB5
:1030480007F10802386AFFF7BBFDBB68002B09D1FE
:103058003B6A1B7819463448FEF720FFF42387F8AB
:1030680027304FE0BB68F869796907F10C02984787
:10307800034687F826307B68002B3DD0FB68002B81
:103088003AD0002387F827303A69FB689A420BD276
:10309800FB6807F1140207F1180107F11C00FFF79C
:1030A800E3FC034687F827303B691A460021386A53
:1030B8000AF0F0F897F92730002B1DD1FA697B69DF
:1030C80013443B627B68FA6897F92600396A984787
:1030D800F969B8697B69FA680192009303460A4660
:1030E8004FF6FF71012003F041F9034687F82730B6
:1030F80097F92730002B04D197F927300BE000BF50
:1031080000E000BFFB69002B03D0FB69184603F001
:10311800C9FD97F9273018462837BD4680BD00BF3E
:103128002204002084D80008ACD8000880B584B0F8
:1031380000AF0346FB800023FB730023BB600D4BED
:103148001B78002B05D10C48FEF7A8FE6FF008038A
:103158000CE004F0C9FFB860FB880022B968184683
:1031680002F06CFB0346FB7397F90F3018461037D3
:10317800BD4680BD22040020DCD8000880B400AF22
:10318800034B1B781846BD465DF8047B704700BFAB
:103198002304002080B500AF0B4B1B78002B02D115
:1031A8000A48FEF77BFE02F04FFF02F0F1FD00F047
:1031B80075FB1022002106480AF06CF8024B002229
:1031C8001A700023184680BD22040020D4D90008B4
:1031D8002804002080B584B000AF7860786802F0D9
:1031E800B1FB0346FB7397F90F3018461037BD46FD
:1031F80080BD80B584B000AF0346FB800123FB731C
:10320800FA7BFB880021184602F018FB0346BB73C3
:1032180097F90E3018461037BD4680BD80B584B08A
:1032280000AF0346FB710123FB6003F0DCFAB860D2
:10323800FA79B968FB68B1FBF3F39A4234BF01230A
:103248000023DBB218461037BD4680BD80B584B078
:1032580000AF78600B46FB7000F02AFBF860F96855
:103268000648FEF71BFE064B1B781A46F968786875
:103278000AF042F800BF1037BD4680BDFCD90008EF
:103288004004002080B588B000AFF860B9607A606B
:103298000023FB77FA68BB681344BB61BB697B6199
:1032A8000023FB7402F0A6FC0346FB74FB7C002B96
:1032B80008D11A48FEF7F2FD7B6802221A606FF007
:1032C8000A0327E07B695B78002B03D07B695B7876
:1032D800012B01D1012300E00023FB74FB7C002BB0
:1032E8000BD17B695B7819460D48FEF7D7FD7B68E3
:1032F80002221A606FF001030CE00A48FEF7CEFDC7
:103308000120FFF7EFFC0023FB777B6808221A6097
:1033180097F91F3018462037BD4680BD14DA0008DB
:1033280060DA000884DA000880B586B000AF03468A
:10333800B9607A60FB7397F90F30002B47D1BB68EF
:103348007B6108220021786909F0A4FF7B69FF22CC
:103358001A7005227B695A7000227B699A7003F003
:1033680042FA0346DAB27B69DA7003F035FA0346AB
:103378009AB27B699A807B6901229A717B690122E2
:10338800DA717B695B7819461648FEF787FD7B6919
:103398009B7819461448FEF781FD7B69DB7819464E
:1033A8001248FEF77BFD7B699B889BB21946104843
:1033B800FEF774FD7B699B7919460E48FEF76EFD92
:1033C8007B69DB7919460C48FEF768FD06E097F93A
:1033D8000F307A68B9681846FFF7E6FC00BF18375F
:1033E800BD4680BDACDA0008C8DA0008E4DA000897
:1033F80000DB00081CDB000838DB000880B586B05D
:1034080000AFF860B9607A600123FB7502F0F2FB47
:103418000346FB75FB7D002B08D10B48FEF73EFDEC
:103428007B6802221A606FF00A0309E00748FEF77A
:1034380035FD0020FFF756FC7B6801221A60002347
:1034480018461837BD4680BD54DB0008A4DB0008C9
:1034580080B584B000AFF860B9607A600548FEF7BF
:103468001DFD7B6806221A60002318461037BD46EA
:1034780080BD00BFD4DB000880B586B000AF03462E
:10348800B9607A60FB73BB687B61062200217869AA
:1034980009F000FF7B69FF221A70FFF733FC03462F
:1034A8001A467B695A70FFF767FC03461A467B6920
:1034B8009A70FFF76DFC03461A467B699A807B6910
:1034C8005B7819460948FEF7E9FC7B699B78194641
:1034D8000748FEF7E3FC7B699B889BB219460548C1
:1034E800FEF7DCFC00BF1837BD4680BDE0DB0008F6
:1034F80004DC000828DC000880B586B000AFF8605E
:10350800B9607A600023FB750B48FEF7C7FC02F030
:103518005BFB0346FB75FB7D002B03D003F08CF9A6
:1035280002F061FB7B6802221A606FF00403184600
:103538001837BD4680BD00BF4CDC000880B588B098
:1035480000AFF860B9607A600023FB77FA68BB685F
:103558001344BB61BB697B610023FB747B695A68B8
:103568007B69DB781946104600F0AEF90346FB7418
:10357800FB7C002B08D10D48FEF790FC7B680222EB
:103588001A606FF00B030CE07B6959687B69DB7884
:103598001A460748FEF782FC7B6801221A6097F9F1
:1035A8001F3018462037BD4680BD00BF54DC0008D8
:1035B80070DC000880B58AB000AFF860B9607A6046
:1035C800002387F82730FA68BB6813443B623B6ADC
:1035D800FB610023FB7600F06BF97861FB695B788F
:1035E8001846FFF71BFE0346FB76FB7E002B0BD12C
:1035F800FB695B7819461248FEF750FC7B6802228B
:103608001A606FF0010316E07B69002B08D10D48A2
:10361800FEF744FC7B6802221A606FF00B030AE095
:10362800FB695A78084B1A70074B1B785A1C7B6841
:103638001A6097F9273018462837BD4680BD00BF65
:10364800A4DC0008D4DC00084004002080B588B061
:1036580000AF0346B9607A60FB7397F90F30002B0F
:1036680030D100F025F9F861BB68BB610122002167
:10367800B86909F00FFEBB69FF221A70FB69002BBD
:103688001CD0164B1B7801337A689A4216D1BB6856
:1036980001337B610023FB741148FEF7FFFBFB7CC1
:1036A80019467869FFF7D2FD0C4B1B78184600F0D5
:1036B80029F90A4B00221A7000BF0AE00948FEF7F0
:1036C800EDFB06E097F90F307A68B9681846FFF7FE
:1036D8006BFB00BF2037BD4680BD00BF4004002003
:1036E800F0DC0008FCDC000880B588B000AFF860AA
:1036F800B9607A600023FB77FA68BB681344BB6142
:10370800BB697B610023FB747B695B781846FFF714
:1037180085FD0346FB74FB7C002B0BD17B695B7832
:1037280019461748FEF7BAFB7B6802221A606FF049
:10373800010320E07B695A687B69DB7819461046EB
:1037480000F0C2F80346FB74FB7C002B08D10D483F
:10375800FEF7A4FB7B6802221A606FF00B030AE0F5
:103768007B695A78084B1A70074B1B785A1C7B6880
:103778001A6097F91F3018462037BD4680BD00BF34
:103788001CDD000850DD00084004002080B588B02A
:1037980000AF0346B9607A60FB7397F90F30002BCE
:1037A80030D100F085F8F861BB68BB6101220021C7
:1037B800B86909F06FFDBB69FF221A70FB69002B1D
:1037C8001CD0164B1B7801337A689A4216D1BB6815
:1037D80001337B610023FB741148FEF75FFBFB7C20
:1037E80019467869FFF732FD0C4B1B78184600F034
:1037F80089F80A4B00221A7000BF0AE00948FEF750
:103808004DFB06E097F90F307A68B9681846FFF75C
:10381800CBFA00BF2037BD4680BD00BF4004002062
:1038280070DD000880DD000880B582B000AF034677
:10383800FB71FB79072204491846FFF743FB03464F
:1038480018460837BD4680BDDCFB000880B500AFD0
:10385800034800F013F800F069F800BF80BD00BF0E
:103868003138000880B400AF034B1B681846BD46CA
:103878005DF8047B704700BF4404002080B483B027
:1038880000AF7860044A7B68136000BF0C37BD4600
:103898005DF8047B704700BF4404002080B500AF8A
:1038A80000F04BF80020FFF7E9FF00BF80BD0000E3
:1038B80080B400AF034B1B681846BD465DF8047B17
:1038C800704700BF3804002080B483B000AF786030
:1038D8000B46FB70FB78002B04D17B68002B01D1D1
:1038E800002306E0064A7B681360054AFB781371DB
:1038F800012318460C37BD465DF8047B704700BFAE
:103908003804002080B483B000AF0346FB71064B37
:103918001A68FB791344044A136000BF0C37BD468C
:103928005DF8047B704700BF3804002080B400AF06
:1039380000BFBD465DF8047B704780B400AF00BF90
:10394800BD465DF8047B704780B584B000AF034680
:10395800FB800023FB7305F0E8FE03460B4A136067
:103968000B4B1B68002B0CBF01230023DBB2FB733E
:10397800FB7B002B04D1054B1B68184605F0E6FEBF
:10398800FB7B18461037BD4680BD00BF540400209D
:103998005004002080B582B000AF0346FB80044B82
:1039A8001B68184605F0D2FE00BF0837BD4680BD2B
:1039B8005404002080B582B000AF0346FB8005F0B8
:1039C800B4FE0346074A1360074B1B680133064AD7
:1039D8001360044B1B68184605F0B8FE00BF083793
:1039E800BD4680BD540400205004002080B582B03C
:1039F80000AF0346FB8005F098FE0346074A1360B4
:103A0800074B1B68013B064A1360044B1B681846AA
:103A180005F09CFE00BF0837BD4680BD5404002059
:103A28005004002080B483B000AF0346FB80104BE5
:103A38001968FA8813465B001344DB000B445B7972
:103A4800022B0AD00A4B1968FA8813465B00134404
:103A5800DB000B445B79032B01D1012300E0002339
:103A6800DBB218460C37BD465DF8047B704700BFD3
:103A78004804002080B582B000AF0023FB7100230A
:103A8800BB800023BB8008E0BB881846FFF7CAFF4D
:103A98000346FB71BB880133BB80094B9B88BA88FE
:103AA8009A4202D2FB79002BEED0FB79002B0CBF97
:103AB80001230023DBB218460837BD4680BD00BF8E
:103AC8004804002080B485B000AF0346FB800B4655
:103AD8007B7113463B71284B1B68002B42D0264B49
:103AE8009B88FA889A423DD2234B1968FA88134674
:103AF8005B001344DB000B441B68002B32D01E4BC9
:103B08001968FA8813465B001344DB000B441B79E1
:103B18007A799A4226D2184B1968FA8813465B00BC
:103B28001344DB000B4419687A791346DB009B1AAF
:103B38009B000B441B68002B14D00F4B1968FA88A4
:103B480013465B001344DB000B4419687A7913466B
:103B5800DB009B1A9B000B441B793A799A4201D2ED
:103B6800012300E00023FB73FB7B18461437BD4696
:103B78005DF8047B704700BF4804002080B485B01E
:103B880000AF03463A60FB710B46BB710023FB7321
:103B9800BB79BB81FB79FF2B04D1BB89FF2B01D8F3
:103BA8000123FB73FB7B18461437BD465DF8047B85
:103BB800704780B483B000AF0346FB71FB7923F0F4
:103BC8001003002B0CBF01230023DBB218460C376F
:103BD800BD465DF8047B704780B485B000AF0346EE
:103BE800FB710023FB73FB79002B05D0FB79012BBC
:103BF80002D0FB79022B01D10123FB73FB7B184612
:103C08001437BD465DF8047B704780B485B000AFBB
:103C18000346FB710023FB73FB79002B05D0FB796E
:103C2800012B02D0FB79022B01D10123FB73FB7B13
:103C380018461437BD465DF8047B704780B400AF62
:103C480001231846BD465DF8047B704780B485B0F3
:103C580000AF0346FB80164B1968FA8813465B00D1
:103C68001344DB000B441B7B022B0ED1104B19684D
:103C7800FA8813465B001344DB000B44DA880D4BCB
:103C88001B889A4201D0012300E00023FB73FB7BD1
:103C9800002B04D0FB88002B01D1012300E0002376
:103CA800FB73FB7B18461437BD465DF8047B7047F1
:103CB800480400202000002080B485B000AF786060
:103CC8000B46FB707B681968FA781346DB009B1A71
:103CD8009B000B44BB60BB689B687A68D28902FB77
:103CE80003F30133FB60FB78002B08D17B681B7A58
:103CF80003F01003002B02D0FB680433FB60FB6861
:103D080018461437BD465DF8047B704780B586B009
:103D180000AF78600023BB7400237B610023FB7431
:103D28000023FB7415E0FB7C19467868FFF7C4FF95
:103D3800F8600023BB600121F86802F015FDB86047
:103D4800BA687B699A4201D9BB687B61FB7C013305
:103D5800FB747B681B79FA7C9A42E4D37B681B79F5
:103D68001A4613465B0099187B6814331A4678691B
:103D780003F050F80346BB7497F91230002B03D0B8
:103D88007B684FF0FF325A6197F91230184618379E
:103D9800BD4680BD80B582B000AF78607B685B6946
:103DA800B3F1FF3F04D07B685B69184603F044F920
:103DB8007B684FF0FF325A6100BF0837BD4680BDAF
:103DC80080B58AB000AFF860B9607A60002387F8E0
:103DD8002730FA68BB6813443B623B6AFB61FB69A6
:103DE8009A78DB781B0213437B83FB691B797B760C
:103DF800FB695B793B760023FB753A7E797E7B8B8A
:103E08001846FFF75FFE0346FB75FB7D002B0BD1C1
:103E1800798B7A7E3B7E1D48FEF740F87B6802224C
:103E28001A606FF001032CE07B8B1846FFF7FAFD50
:103E38000346002B0CBF01230023DBB2FB75FB7D7F
:103E4800002B0AD17B8B19461148FEF727F87B68AF
:103E580002221A606FF0070313E0798B7A7E3B7EAB
:103E68000C48FEF71BF80C4A7B8B13800A4A7B7EB2
:103E78009370094A3B7ED3707B6801221A6097F9D8
:103E8800273018462837BD4680BD00BFA8DD00088A
:103E9800ECDD00081CDE00081C000020F0B58FB027
:103EA80004AFF860B9607A60002387F82730FA68B1
:103EB800BB6813443B623B6AFB61584B1B887B839E
:103EC800564B9B787B76554BDB783B7600237B61A2
:103ED8000023FB743A7E797E7B8B1846FFF7F2FD50
:103EE8000346FB74FB7C002B0BD1798B7A7E3B7EDF
:103EF8004B48FDF7D3FF7B6802221A606FF0050379
:103F080087E07B8B1846FFF78DFD0346002B0CBF1F
:103F180001230023DBB2FB74FB7C002B0AD17B8BD3
:103F280019464048FDF7BAFF7B6802221A606FF015
:103F380007036EE0FB695878FB699978FB695B6851
:103F48001A46FFF71BFE0346FB74FB7C002B1BD1B4
:103F5800798B7A7E387EFB695B781C46FB699B7897
:103F68001D46FB69DB781E46FB695B680393029676
:103F78000195009403462C48FDF790FF7B680222C8
:103F88001A606FF0010344E0798B7A7E387EFB6912
:103F98005B781C46FB699B781D46FB69DB781E46EF
:103FA800FB695B68039302960195009403461F48DA
:103FB800FDF774FF1E4B19687A8B13465B00134498
:103FC800DB000B4419687A7E1346DB009B1A9B00C2
:103FD8000B441A683B7EDB0013447B61FB695A780B
:103FE8007B691A70FB699A787B695A70FB69DA7881
:103FF8007B699A70FB695A687B695A60074BDB7862
:104008000133DAB2054BDA707B6801221A6097F93E
:10401800273018462C37BD46F0BD00BF1C000020D5
:104028006CDE0008C8DE0008F8DE000870DF000853
:104038004804002090B58DB002AFF860B9607A608E
:10404800002387F82730FA68BB6813443B623B6A51
:10405800FB610023BB610023FB75614B1B68002BD0
:1040680008D0FB695B889AB25D4B9B889A4201D263
:10407800012300E00023FB75FB7D002B0CD1FB69BD
:104088005B889BB219465748FDF708FF7B680222F8
:104098001A606FF001039FE0514B1A68FB695B8857
:1040A8009BB219460B465B000B44DB001344BB6113
:1040B800FB695B889BB21846FFF7B4FC0346002BEC
:1040C8000CBF01230023DBB2FB75FB7D002B0CD159
:1040D800FB695B889BB219464348FDF7DFFE7B68A6
:1040E80002221A606FF0070376E0FB699B889BB297
:1040F8007F2B94BF01230023DBB2FB75FB7D002BD4
:104108000CD1FB699B889BB219463848FDF7C6FE5F
:104118007B6802221A606FF001035DE0FB69DB79BE
:10412800002B0CBF01230023DBB2FB75FB7D002BAA
:1041380008D12F48FDF7B2FE7B6802221A606FF0A3
:10414800010349E0FB695B781846FFF732FD034637
:10415800FB75FB7D002B0BD1FB695B781946254865
:10416800FDF79CFE7B6802221A606FF0090333E0BA
:10417800FB695B889BB21946FB695B781846FB694B
:104188009B889BB21C46FB699B791A46FB69DB79C5
:1041980001930092234602461748FDF77FFEFB690C
:1041A8005A78BB691A72FB699B889AB2BB69DA8034
:1041B800FB699A79BB695A72FB69DA79BB699A72A9
:1041C800BB695B7A012B02D8BB6901225A727B68F2
:1041D80001221A6097F9273018462C37BD4690BD42
:1041E80048040020E0DF000810E0000844E0000870
:1041F80074E00008B0E00008E4E0000890B58FB073
:1042080000AFF860B9607A60002387F82630FA6852
:10421800BB6813443B623B6AFB610023BB61FB69DB
:104228005B889BB27B61002387F837300023FB74DF
:104238008A4B1B68002B07D0884B9B881A467B69E2
:10424800934201DA012300E0002387F8373097F81A
:104258003730002B09D179698148FDF71FFE7B684B
:1042680002221A606FF00103B2E17E4A7B69136093
:104278007A4B19687A6913465B001344DB000B44D8
:10428800BB61FB695B781846FFF7A6FC034687F815
:10429800373097F83730002B0BD1FB695B7819461C
:1042A8007148FDF7FBFD7B6802221A606FF0090375
:1042B8008EE1FFF7C3FC0346002B5AD0BB695B793C
:1042C800002B56D1BB691B7A03F00203002B21D0C7
:1042D800BB691B68002B09D0604BDB791A46BB69A8
:1042E8001B791344802B01DC012300E0002387F8AD
:1042F800373097F83730002B2DD0584BDA79BB6917
:10430800DA72564BDA79BB691B791344DAB2534B2C
:10431800DA7120E0BB691B68002B09D04F4B9B79F1
:104328001A46BB691B791344FC2B01DC012300E00E
:10433800002387F8373097F83730002B0BD0474BDE
:104348009A79BB69DA72454B9A79BB691B79134430
:10435800DAB2424B9A7197F83730002B09D1796954
:104368004248FDF79BFD7B6802221A606FF0080344
:104378002EE1FB695B78012B04D0FB695B78022B8B
:1043880040F0908000233B63012387F837300023F7
:104398003B637CE00023FB620023BB620023FB62DB
:1043A80013E0BB6919683A6B1346DB009B1A9B0044
:1043B8000B441A68FB6ADB0013445B781A46BB6A35
:1043C8001344BB62FB6A0133FB62BB6919683A6B31
:1043D8001346DB009B1A9B000B441B791A46FB6AA9
:1043E8009342DEDB3B6B002B17D1BB691B7A03F0D2
:1043F8001003002B11D0BB69DB891A46BB6A02FB8C
:1044080003F35C1D02F0E8F903469C4294BF0123C4
:104418000023DBB287F8373010E0BB69DB891A4626
:10442800BB6A02FB03F35C1C02F0D6F903469C420C
:1044380094BF01230023DBB287F8373097F8373071
:10444800002B17D13A6B79690948FDF727FD7B687E
:1044580002221A606FF00803BAE000BF4804002087
:1044680048E100081800002078E10008A8E10008E9
:10447800E4E10008BB6919683A6B1346DB009B1A34
:104488009B000B44BA6A9A603B6B01333B63BB6980
:104498001B791A463B6B934204DA97F83730002BA6
:1044A8007FF478AFBB69DB881846FFF74DFA0346FF
:1044B800FB74FB7C002B7DD0002387F82730FB6939
:1044C8005B78022B53D0022B5FDC002B02D0012B30
:1044D80013D05AE079694048FDF7E0FCBB69012236
:1044E8005A71FFF7C7FA0346002B4BD00120FEF79D
:1044F800F9FB4020FEF726FC44E079693748FDF7D0
:10450800CDFCBB695B69B3F1FF3F22D1BB69DA8897
:10451800334B1B889A420CD1314B5868304B996801
:10452800BB6914331A4602F033FE034687F8273076
:104538000FE07B69002B0CDCBB69DB88012B08D8FA
:10454800B869FFF7E3FB034687F82730BB69002209
:104558001A8297F92730002B16D1BB6903225A71AA
:104568000220FEF7BFFB4020FEF7D8FB0CE0FB69FA
:104578005B889BB219461B48FDF790FCBB69022279
:104588005A7102E000BF00E000BFBB69DB88184633
:10459800FFF700FA7B6802221A6097F92730002B90
:1045A80008D01148FDF77AFC7B6802221A606FF088
:1045B80002030DE0FB7C002B08D10C48FDF76EFCD4
:1045C8007B6802221A606FF00A0301E097F926302F
:1045D80018463C37BD4690BD48E2000874E2000822
:1045E80020000020A0E20008CCE2000818E3000840
:1045F80080B586B000AF0346B9607A60FB7397F95F
:104608000F30002B12D1BB687B617B69FF221A70C7
:104618000C4B1A680C4B1B6819460B465B000B4485
:10462800DB001344DA7A7B695A7006E097F90F3099
:104638007A68B9681846FEF7B7FB00BF1837BD4659
:1046480080BD00BF480400201800002090B58BB042
:1046580000AFF860B9607A600023FB77FA68BB683E
:104668001344BB61BB697B610023FB740023BB74EB
:1046780000237B627B695B781846FFF7C6FA03461E
:10468800FB74FB7C002B0BD17B695B781946A64831
:10469800FDF704FC7B6802221A606FF0090362E1EF
:1046A800A24B1B68002B05D0A04B9B88002B01D088
:1046B800012300E00023FB74FB7C002B08D19C48FD
:1046C800FDF7ECFB7B6802221A606FF001034AE1F8
:1046D80001F07AFA0346BB74BB7C002B00F03581ED
:1046E800002387F8233000233B847B695B78022B07
:1046F80000F0D580022B00F30681002B02D0012B9D
:104708002CD000E100237B621BE0884B19687A6A91
:1047180013465B001344DB000B445B79002B0DD080
:10472800796A8448FDF7BAFB804B19687A6A1346A0
:104738005B001344DB000B4401225A717B6A01338E
:104748007B627A4B9B881A467B6A9342DDDB0120A9
:10475800FEF7C8FA4020FEF7F5FAD4E000237B62A2
:1047680063E0724B19687A6A13465B001344DB00F6
:104778000B445B79022B55D16C4B19687A6A134646
:104788005B001344DB000B445B69B3F1FF3F49D185
:10479800664B19687A6A13465B001344DB000B44C6
:1047A800DA88654B1B889A4214D1634B5868624B70
:1047B8009C685E4B19687A6A13465B001344DB00F9
:1047C8000B4414331A46214602F0E2FC034687F8EC
:1047D800233027E07B6A002B24DC544B19687A6A63
:1047E80013465B001344DB000B44DB88012B19D80C
:1047F8004E4B19687A6A13465B001344DB000B447E
:104808001846FFF783FA034687F82330474B1968A1
:104818007A6A13465B001344DB000B4400221A82B9
:104828007B6A3B847B6A01337B62404B9B881A46D8
:104838007B6A934203DA97F92330002B91D097F9DA
:104848002330002B5CD100237B6221E0374B1968B1
:104858007A6A13465B001344DB000B445B79022B36
:1048680013D1796A3548FDF719FB304B19687A6A14
:1048780013465B001344DB000B4403225A710220E9
:10488800FEF730FA4020FEF749FA7B6A01337B6273
:10489800264B9B881A467B6A9342D7DB30E000237D
:1048A8007B621BE0214B19687A6A13465B0013444C
:1048B800DB000B445B79022B0DD1796A1D48FDF7AB
:1048C800EDFA1A4B19687A6A13465B001344DB0049
:1048D8000B4401225A717B6A01337B62134B9B881C
:1048E8001A467B6A9342DDDBFFF7C4F80346002BC8
:1048F80008D00120FEF7F6F94020FEF723FA01E080
:1049080000BF00E000BF01F06EF997F92330002BDB
:1049180018D03B8C19460A48FDF7C0FA7B6802227A
:104928001A606FF002031EE060E3000848040020EC
:1049380090E30008BCE3000820000020E4E300083E
:104948000CE400087B6801221A60BB7C002B08D1AC
:104958000748FDF7A3FA7B6802221A606FF00A0382
:1049680001E097F91F3018462C37BD4690BD00BFAF
:1049780058E4000880B584B000AFF860B9607A6088
:104988000548FDF78BFA7B6808221A600023184651
:104998001037BD4680BD00BF9CE4000880B586B0D6
:1049A80000AF0346B9607A60FB73BB687B6108227D
:1049B8000021786908F06EFC7B69FF221A707B6918
:1049C80011225A707B694FF0FF329A704FF0FF3214
:1049D800DA707B69002262F07F021A7100225A7134
:1049E8007B6900229A717B690022DA717B695B78A6
:1049F80019461048FDF752FA7B695B889BB2194645
:104A08000D48FDF74BFA7B699B889BB219460B480A
:104A1800FDF744FA7B699B7919460948FDF73EFA88
:104A28007B69DB7919460748FDF738FA00BF183764
:104A3800BD4680BDB4E40008D0E40008ECE40008FA
:104A480008E5000824E5000880B584B000AFF860E8
:104A5800B9607A600548FDF721FA7B6808221A6078
:104A6800002318461037BD4680BD00BF40E500084A
:104A780080B586B000AF0346B9607A60FB73BB6847
:104A88007B6108220021786908F004FC7B69FF2219
:104A98001A707B6901225A707B69FF229A707B69C0
:104AA8000122DA707B69FF221A717B6934225A71FC
:104AB8007B69002242F001029A710022DA717B6957
:104AC8005B7819461248FDF7E9F97B699B78194626
:104AD8001048FDF7E3F97B69DB7819460E48FDF7C6
:104AE800DDF97B691B7919460C48FDF7D7F97B6915
:104AF8005B7919460A48FDF7D1F97B69DB889BB2D7
:104B080019460848FDF7CAF900BF1837BD4680BDE9
:104B18005CE5000884E50008ACE50008D4E5000879
:104B2800FCE5000828E6000880B586B000AFF8600C
:104B3800B9607A600023FB750023BB750F48FDF749
:104B4800ADF901F057F80346BB75BB7D002B08D1C2
:104B58000B48FDF7A3F97B6802221A606FF00A037D
:104B680007E00120FEF7BEF87B6801221A6097F97A
:104B7800173018461837BD4680BD00BF50E60008FC
:104B880080E6000880B58CB000AFF860B9607A6044
:104B9800002387F82B30FA68BB6813447B627B6A72
:104BA8003B623B6A5B889BB2FB610023BB610023CD
:104BB800FB750023FB62514B1B68002B0CBF0123C4
:104BC8000023DBB2FB75FB7D002B08D14C48FDF7B9
:104BD80065F97B6802221A606FF003038AE0FB69BB
:104BE800002B05DDFB69B3F5803F01DA012300E006
:104BF8000023FB75FB7D002B09D1F9694148FDF7BE
:104C08004DF97B6802221A606FF0010372E0FA69BD
:104C180013465B001344DB001A46F9693A48FDF76E
:104C28003DF9FA6913465B001344DB00184601F0AE
:104C3800C5FFB861BB69002B09D1F9693348FDF795
:104C48002DF97B6802221A606FF0020352E0FA69BC
:104C580013465B001344DB001A460021B86908F0CC
:104C680019FB264ABB691360FB699AB2234B9A80E9
:104C78000023FB6235E0FA6A13465B001344DB004D
:104C88001A46BB6913444FF0FF325A61FA6A134659
:104C98005B001344DB001A46BB69134400221A73F5
:104CA800FA6A13465B001344DB001A46BB691344D7
:104CB80001225A73FA6A13465B001344DB001A4652
:104CC800BB6913440122DA81FA6A13465B00134474
:104CD800DB001A46BB69134400221A82FB6A0133BF
:104CE800FB62FA6AFB699A42C5DB7B6801221A609B
:104CF80097F92B3018463037BD4680BD4804002050
:104D0800BCE6000800E7000830E700085CE7000898
:104D180090B589B000AFF860B9607A600023FB777E
:104D2800FA68BB681344BB61BB697B617B699A788D
:104D3800DB781B0213437B827B691B797B7400231E
:104D48003B745C4B1B68002B14BF01230023DBB2B0
:104D58003B743B7C002B08D15748FDF79FF87B68D4
:104D680002221A606FF003039FE0524B9B887A8AF5
:104D78009A4234BF01230023DBB23B743B7C002BF7
:104D88000AD17B8A19464D48FDF788F87B680222CC
:104D98001A606FF0010388E07B7C002B04D07B7CD9
:104DA800FC2B01D8012300E000233B743B7C002B43
:104DB8000BD17B7C7A8A19464148FDF76FF87B68EE
:104DC80002221A606FF001036FE03A4B19687A8A81
:104DD80013465B001344DB000B441B68002B0CBF1D
:104DE80001230023DBB23B743B7C002B08D1354800
:104DF800FDF754F87B6802221A606FF0030354E051
:104E0800797C788A7A7C1346DB009B1A9B000246E1
:104E18002D48FDF743F87A7C1346DB009B1A9B006C
:104E28001846244B19687A8A13465B001344DB0042
:104E3800CC1801F0C3FE034623601E4B19687A8A1A
:104E480013465B001344DB000B441B68002B0BD19B
:104E58007B7C7A8A19461D48FDF720F87B68022278
:104E68001A606FF0020320E0124B19687A8A134621
:104E78005B001344DB000B4418687A7C1346DB00A4
:104E88009B1A9B001A46002108F004FA094B19687E
:104E98007A8A13465B001344DB000B447A7C1A7150
:104EA8007B6801221A6097F91F3018462437BD46DF
:104EB80090BD00BF4804002094E70008D4E700082C
:104EC80000E800083CE8000878E80008B0E80008B6
:104ED80090B58DB002AFF860B9607A60002387F8AA
:104EE8002730FA68BB6813443B623B6AFB61FB6985
:104EF8009A78DB781B0213437B83FB691B797B76EB
:104F0800FB695B793B760023FB75844B1B68002BA0
:104F180014BF01230023DBB2FB75FB7D002B08D1F6
:104F28007F48FCF7BBFF7B6802221A606FF003031F
:104F3800F0E07A4B9B887A8B9A4234BF0123002396
:104F4800DBB2FB75FB7D002B0AD17B8B19467548BC
:104F5800FCF7A4FF7B6802221A606FF00103D9E016
:104F68006E4B19687A8B13465B001344DB000B44C5
:104F78001B68002B14BF01230023DBB2FB75FB7DEC
:104F8800002B08D16848FCF789FF7B6802221A6069
:104F98006FF00303BEE0614B19687A8B13465B0020
:104FA8001344DB000B441B797A7E9A4234BF0123F9
:104FB8000023DBB2FB75FB7D002B0AD17B7E1946F3
:104FC8005A48FCF76BFF7B6802221A606FF00103F6
:104FD800A0E0524B19687A8B13465B001344DB0040
:104FE8000B4419687A7E1346DB009B1A9B000B441E
:104FF8001B68002B0CBF01230023DBB2FB75FB7D74
:10500800002B08D14A48FCF749FF7B6802221A6046
:105018006FF003037EE03B7E002B14BF01230023C7
:10502800DBB2FB75FB7D002B0BD1397E7A7E7B8B47
:105038004048FCF733FF7B6802221A606FF00103D7
:1050480068E0397E7A8B787E3B7EDB0000930346EE
:105058003948FCF723FF3B7ED800304B19687A8B20
:1050680013465B001344DB000B4419687A7E134631
:10507800DB009B1A9B00CC1801F0A0FD03462360BF
:10508800264B19687A8B13465B001344DB000B44EC
:1050980019687A7E1346DB009B1A9B000B441B6839
:1050A800002B0BD1397E7A8B7B7E2448FCF7F6FEE9
:1050B8007B6802221A606FF002032BE0174B196815
:1050C8007A8B13465B001344DB000B4419687A7E25
:1050D8001346DB009B1A9B000B4418683B7EDB00E1
:1050E8001A46002108F0D6F80C4B19687A8B13463B
:1050F8005B001344DB000B4419687A7E1346DB001F
:105108009B1A9B000B443A7E1A717B6801221A6035
:1051180097F9273018462C37BD4690BD4804002023
:10512800F0E8000834E9000868E90008A8E9000880
:10513800D4E9000820EA000870EA0008BCEA000880
:1051480080B485B000AFF860B9607A607B680222ED
:105158001A606FF00F0318461437BD465DF8047BDC
:105168007047000080B58AB000AFF860B9607A6017
:10517800002387F82730FA68BB6813443B623B6A10
:10518800FB61FB699A78DB781B0213437B83FB691D
:105198001B797B76FB695B793B76FB699A79DB79CE
:1051A8001B021343FB8201237B756C4B1B68002B8E
:1051B80014BF01230023DBB27B757B7D002B08D154
:1051C8006748FCF76BFE7B6802221A606FF00303E6
:1051D800C0E0624B9B887A8B9A4234BF012300233C
:1051E800DBB27B757B7D002B0AD17B8B19465D4832
:1051F800FCF754FE7B6802221A606FF00103A9E0F5
:105208007B8B002B0CBF01230023DBB27B757B7DDE
:10521800002B0AD17B8B19465348FCF73FFE7B686D
:1052280002221A606FF0090394E07B7E002B02D003
:105238007B7E022B01D1012300E000237B757B7D5F
:10524800002B0AD17B7E19464848FCF727FE7B686D
:1052580002221A606FF009037CE03B7E012B0CBF31
:1052680001230023DBB27B757B7D002B0AD13B7EBB
:1052780019463F48FCF712FE7B6802221A606FF05D
:10528800090367E07B7E002B02D1FB8A012B05D046
:105298007B7E002B04D0FB8A012B01D9012300E07F
:1052A80000237B757B7D002B0AD1FB8A1946314888
:1052B800FCF7F4FD7B6802221A606FF0090349E0ED
:1052C8007B8B1846FEF7AEFB0346002B0CBF012371
:1052D8000023DBB27B757B7D002B08D12648FCF7C9
:1052E800DDFD7B6802221A606FF0070332E0797EE9
:1052F8003A7EFB8A2148FCF7D1FD184B19687A8B56
:1053080013465B001344DB000B447A7E1A73134B7D
:1053180019687A8B13465B001344DB000B443A7E12
:105328005A730E4B19687A8B13465B001344DB00E3
:105338000B44FA8ADA81094B19687A8B13465B00A9
:105348001344DB000B4400221A827B6801221A6096
:1053580097F9273018462837BD4680BD48040020F5
:105368000CEB000854EB00088CEB0008F0EB00088D
:105378002CEC000870EC0008B4EC000810ED0008F4
:1053880080B588B000AFF860B9607A600023FB7719
:10539800FA68BB681344BB61BB695B78012B0CBF1F
:1053A80001230023DBB2FB75FB7D002B0BD1BB690E
:1053B8005B7819460A48FCF771FD7B6802221A607F
:1053C8004FF0FF3308E07A68B968F868FFF7CAFE5B
:1053D8000346FB7797F91F3018462037BD4680BD36
:1053E80060ED000880B582B000AF0346FB71FB7921
:1053F8000D2204491846FDF765FD0346184608378F
:10540800BD4680BD30FC000880B500AF084B0022C7
:105418001A60084B00221A6008220021064807F08B
:1054280039FF064800F018F800F0C2FC00BF80BD44
:10543800540400205004002048040020ED530008C4
:1054480080B400AF034B1B681846BD465DF8047B6B
:10545800704700BF5804002080B483B000AF786064
:10546800044A7B68136000BF0C37BD465DF8047BB7
:10547800704700BF5804002080B584B000AF0346D1
:10548800FB800023FB600023BB60224B1B68002BC2
:1054980004D0204B9B88FA889A4205D31E48FCF713
:1054A800FDFC4FF0FF3331E01A4B1968FA881346B8
:1054B8005B001344DB000B44BB60FB881846FEF717
:1054C800C5FB0346002B03D0BB681B8A002B01D108
:1054D80000231BE00023FB600EE0BB681968FA6834
:1054E8001346DB009B1A9B000B44DB68184601F04F
:1054F800D9FBFB680133FB60BB681B791A46FB6864
:105508009342EADBBB6800221A8200231846103750
:10551800BD4680BD4804002098ED000880B487B0DF
:1055280000AFF8600B467A60FB72FB681968FA7A7C
:105538001346DB009B1A9B000B443B613B695B698C
:105548007B613B6900229A61FB68DA7AFB7A134433
:10555800DAB27B691A707B6901337B61FB7A002BB5
:1055680011D1FB681B7A03F01003002B0BD07A686B
:105578007B691A603B699B6904337A6913447B61D0
:105588003B6900229A613B697A695A6100BF1C37FE
:10559800BD465DF8047B704780B588B000AF786081
:1055A8000023FB777B685B69BB610023FB7735E0F1
:1055B8007B681A68FB7FDB0013447B617B695B684F
:1055C8003B617B691B78FF2B12D03B69FB60FB6852
:1055D8001B687A691278114601228A401340002B11
:1055E80014BF01230023DBB21A46BB691A7006E018
:1055F8007B695B781A463969B86907F07DFE7B6973
:105608005B781A467B689B691344BA691344BB618B
:105618007B6800229A61FB7F0133FB777B681B79EB
:10562800FA7F9A42C4D37B68BA695A6100BF2037AF
:10563800BD4680BD80B58EB002AF0346B9607A60C2
:10564800FB81002387F82F30002387F82E300023B2
:10565800BB62002387F82D30002387F8273000230A
:1056680087F82630724B1B68002B04D0704B9B8840
:10567800FA899A4205D36F48FCF710FC4FF0FF33C4
:10568800D1E06B4B1968FA8913465B001344DB00C1
:105698000B44BB62FB891846FEF7D8FA034687F825
:1056A800273097F82730002B06D0BB6A1B8A0133B6
:1056B800BA6AD289934201D1012300E0002387F816
:1056C8002630002387F82D3093E0BB6A196897F8D5
:1056D8002D201346DB009B1A9B000B443B6201F014
:1056E80033F8F8610023BB6197F82730002B03D00B
:1056F800BB6A1B8A002B01D1012300E00023FB7544
:10570800FB7D002B3CD097F82D301946B86AFEF780
:10571800D3FA02463B6A1A613B6A1B6901211846A3
:1057280001F022F8B861BB6A5B69B3F1FF3F09D0A9
:10573800BB6A5B69B969184601F0BAFD02463B6A63
:10574800DA6005E0B86901F039FA02463B6ADA60C6
:105758003B6ADB68002B0DD03B6ADA68FB691A44A8
:105768003B6A5A6197F82D30BA681946B86AFFF74C
:10577800D5FE05E0012387F82E30F62387F82F3071
:1057880097F82E30002B2FD13B6ADB68002B2BD0EB
:10579800BB6ADA88284B1B889A4202D0386AFFF71E
:1057A800FBFE97F82630002B1ED03B6A1B690121AF
:1057B800184600F0D9FFB8613B6ADA683B6A1B6992
:1057C800F9890193FB690093BB69786800F0CEFD05
:1057D800034687F82F3097F92F30002B04D03B6A07
:1057E800DB68184601F05EFA97F82D30013387F828
:1057F8002D30BB6A1B7997F82D209A4204D297F86E
:105808002E30002B3FF461AFBB6A1B8A0133BA6AA2
:10581800D28993FBF2F101FB02F29B1A9AB2BB6A9E
:105828001A8297F92F3018463037BD4680BD00BF21
:105838004804002098ED00082000002080B586B0BC
:1058480000AF03463960FB8013467B710023FB756C
:10585800FB881846FEF7AEF8394B1B68002B64D05E
:10586800374B9B88002B60D00023BB82344B1B68CE
:105878003B610023BB824FE0BA8A13465B001344A6
:10588800DB001A463B6913441B7A03F00203002B22
:105898003FD1BA8A13465B001344DB001A463B69C2
:1058A80013445B79032B34D1BA8A13465B00134443
:1058B800DB001A463B691344DB88FA889A4228D1F0
:1058C800BB8A1946002000F037FD0346FB73FB7BBB
:1058D800002B01D0002301E04FF0FF33BB607B7940
:1058E800002B06D0BB8A1846FFF7C6FD0346FB759A
:1058F80007E0BB8ABA6839681846FFF79BFE03467B
:10590800FB75FB7B002B04D0BB8A1946002000F0F6
:1059180020FDBB8A0133BB82094B9B88BA8A9A4215
:1059280003D297F91730002BA6D0FB881846FEF74C
:105938005DF897F9173018461837BD4680BD00BF87
:105948004804002080B58EB002AF7860002387F845
:105958002F309C4B1B68002B00F02E8100F034F98F
:10596800034687F8293097F82930002B00F0218169
:10597800944B1B687B62934B9B883B620023BB85DF
:105988000023BB850DE1BB8D1846FEF75FF9034682
:10599800FB77FB7F002B00F00181BA8D13465B007B
:1059A8001344DB001A467B6A13445B79032B40F0EF
:1059B800F580BA8D13465B001344DB001A467B6AF8
:1059C80013441B8A002B00F0E980BB8D1946002088
:1059D80000F0B2FC0346BB77BB7F002B01D000234D
:1059E80001E04FF0FF33BB6100237B8500237B85FB
:1059F800BCE0BA8D13465B001344DB001A467B6A91
:105A0800134419687A8D1346DB009B1A9B000B44DC
:105A1800DB68002B00F0A780BA8D13465B001344A7
:105A2800DB001A467B6A134419687A8D1346DB003B
:105A38009B1A9B000B441B690121184600F094FE39
:105A4800786100F081FE3861BA8D13465B0013441B
:105A5800DB001A467B6A134419687A8D1346DB000B
:105A68009B1A9B000B44DA683B691344FB60BA8DB0
:105A780013465B001344DB001A467B6A134419681B
:105A88007A8D1346DB009B1A9B000B441969BA8D6B
:105A980013465B001344DB001A467B6A13441868FC
:105AA8007A8D1346DB009B1A9B0003445A69FB68F6
:105AB800D31ACB1ABB60BA8D13465B001344DB00C4
:105AC8001A467B6A134419687A8D1346DB009B1AC1
